:1000000000200010C1000000E1000000E30000003B
:1000100000000000000000000000000000000000E0
:10002000000000000000000000000000E5000000EB
:100030000000000000000000E70000001D030000B9
:10004000EB000000EB000000EB000000EB00000004
:10005000EB000000EB000000EB000000EB000000F4
:10006000EB000000EB000000EB000000EB000000E4
:10007000EB000000C1030000EB000000EB000000FB
:10008000EB000000EB000000EB000000EB000000C4
:10009000EB000000EB00000000000000000000008A
:1000A000EB000000EB000000EB000000000000008F
:1000B000EB000000EB000000EB000000EB00000094
:1000C0000549064A0020521A02DD043A8850FCDC39
:1000D00000F0B0FA00F07EF9080100107002001084
:1000E000FEE7FEE7FEE7FEE7FEE7FEE743600023EC
:1000F000016082600361C36001207047F8B50400AD
:100100000369E2680E0000209A420FD0180061686F
:1001100000F05CFBA768256879433A006918300055
:1001200000F076FB0120236901332361F8BDC0464E
:1001300010B500F05DF8014B186010BD0001001013
:10014000090410B54018002B07D1012180249140EB
:10015000240203598B43035110BD01238021934096
:100160000902445823434350F6E7C046032100B533
:100170001B4A83B0136F0B40022B1CD0032B0CD0F7
:10018000012B02D0174803B000BD136C1940F9D001
:10019000012923D1144B1868F5E79168126C1340BC
:1001A00016D0012B1AD11F200F4B08401B680130BD
:1001B00001935843E7E71F21526AD30511401B0FF3
:1001C0000A4A9B0001314900985800F079FADAE7B1
:1001D0001F2304480B4001335843D4E70020D2E7E3
:1001E00000800440001BB700080A000084090000DA
:1001F00010B5FFF7BBFF024B996F00F061FA10BD1D
:100200000080044080218022074B10B55C585201C9
:1002100022435A5098227F39995007238360043B28
:10022000C3600D33836210BD0080044070B50026AA
:100230002025002A0DDD00234469254204D0CC5C32
:10024000013304609A42F7DCD21AF618C918002A62
:10025000F1DC300070BDC04630B5002A0FDD4369C7
:10026000DB070CD50023012502E04469254204D0B8
:100270000468CC5401339A42F7D1180030BD0023F2
:10028000FBE7C04670B50E000400FFF76FFF3101B9
:10029000050000F015FAFF231E0001000640802033
:1002A000E2680243E2600A0A134026606360E36882
:1002B0008343E360280000F003FA70BD0122024B83
:1002C0001860024B1A7070470C01001008010010F2
:1002D00010B5132202490348FFF7A8FF10BDC0461E
:1002E000F40900000080004010B504000748084BE6
:1002F00044741B689B68DB689847012C00D010BDD4
:100300000E2204490448FFF791FFF8E75802001055
:10031000F81FFF1FE409000000800040024A136834
:10032000013313607047C0465002001080228023C2
:10033000F0B5C64605000C0020499B02885800B560
:1003400003438B50FFF712FF290000F0B9F9002397
:1003500003279846012343449C463E00190001258B
:100360003200032390420ED001335218122BF9D1E0
:1003700001356144F619212DF2D163460337102B64
:1003800017D0E046E6E74246033B590822600A00E0
:10039000032911D8F02608025B1AE02136019201E8
:1003A00030400243013D1B03C9012A430B40134364
:1003B000636004BC9046F0BD0322EBE7008004407C
:1003C000034B10B51B689B685B68984710BDC0461F
:1003D000F81FFF1FF0B5DE464E4657464546E0B5CE
:1003E00091B0FFF7A5FEFA21794B8900186800F05B
:1003F00067F9C021774A0138506077480906036AD7
:1004000000251B021B0A0B43036207239560136040
:10041000012292465146714B714CA33299500432DD
:1004200099502000FFF7EEFE962120008901FFF78A
:1004300029FF0323E3607E33A360013B23630C2287
:1004400068492000FFF7F2FEA020012308220221C4
:10045000C0058027FFF774FEA020634CFF00E55124
:1004600001230A220221C005FFF76AFE80235B01F7
:10047000E55080235B00E3515C4C5D4908AFF83BDD
:1004800018222000FFF732FE3A005A4B2561E56042
:1004900043CB43C243CB43C203CB03C26946564856
:1004A000FFF744FF554B012198461B6868469B683F
:1004B0001B68984743461B6838009B68DB69984770
:1004C00080224F4B92011A604E4B524699465A7405
:1004D000C0234A46DB0013604B4B484653604346FB
:1004E0001B689B689B689847484B494F1D609B461B
:1004F000484B3D709A46484B484D9846484EE368F5
:10050000226993421AD002A92000FFF7F7FD1722B3
:1005100051463348FFF78AFE10222900414800F077
:1005200073F9280000F0B6F9290002002C48FFF703
:100530007DFE022241462A48FFF778FE3B78002BD9
:1005400024D1082231002648FFF786FEC0B20028D9
:10055000D5D03378612B34D14A465F3B5374E023C6
:10056000DB001360AA235360244B02A81B689B681E
:100570001B6998470C222C491948FFF757FEE3687E
:1005800022699342BFD13B78002BDAD000230D22A1
:10059000264913483B70FFF749FE5B46290018685F
:1005A000022200F031F9280000F074F9290002005D
:1005B0000B48FFF73BFE022241460948FFF736FE93
:1005C000BFE70E221A490648FFF730FE97E7C046FC
:1005D0000001001010E000E000ED00E000400440E9
:1005E000008000400C0A00000000025010010010C2
:1005F00090010010C409000020A10700F81FFF1F90
:1006000000E100E058020010FF0700000C0100109C
:10061000080100101C0A0000340A00002401001028
:10062000880100107F969800480A0000380A0000F0
:10063000580A00008E2120201F4B89005A5810B5FF
:1006400082435A5000221A62C823C046013B002B45
:10065000FBD10121184A1364516453645164536CF3
:100660001942FCD061238E21802093608900535869
:10067000834353500121104AD3681942FCD0002310
:10068000116751675367516701210B4A536F194234
:10069000FCD08E2380209B00D458C0002043D05033
:1006A0008020D45840002043D0509167B93B034983
:1006B000FF3BD15010BDC046008004405F000100E8
:1006C000002243088B4274D303098B425FD3030A91
:1006D0008B4244D3030B8B4228D3030C8B420DD3A4
:1006E000FF22090212BA030C8B4202D31212090232
:1006F00065D0030B8B4219D300E0090AC30B8B4270
:1007000001D3CB03C01A5241830B8B4201D38B031D
:10071000C01A5241430B8B4201D34B03C01A5241C2
:10072000030B8B4201D30B03C01A5241C30A8B4205
:1007300001D3CB02C01A5241830A8B4201D38B02F0
:10074000C01A5241430A8B4201D34B02C01A524194
:10075000030A8B4201D30B02C01A5241CDD2C30906
:100760008B4201D3CB01C01A524183098B4201D382
:100770008B01C01A524143098B4201D34B01C01A6D
:10078000524103098B4201D30B01C01A5241C308E5
:100790008B4201D3CB00C01A524183088B4201D354
:1007A0008B00C01A524143088B4201D34B00C01A40
:1007B0005241411A00D20146524110467047FFE7AC
:1007C00001B5002000F006F802BDC0460029F7D0B0
:1007D00076E770477047C046931E10B50C00222B79
:1007E0000ED80A2A05D00021611800F085F82000F3
:1007F00010BD0028F7DA2D2340420B700121F3E7EA
:10080000002300200B70F3E710B5FFF7E5FF10BDE4
:10081000F0B505000F2A2FD90B0003439B0734D1F5
:1008200016000C000300103E350901352D01451955
:1008300027681F6067685F60A7689F60E76810347B
:10084000DF6010339D42F3D10F239E43103685198C
:1008500089191340032B1AD91E1F0023B408013431
:10086000A400CF58EF500433A342FAD10324A64387
:10087000331D2240C918ED18002A05D00023CC5C96
:10088000EC5401339342FAD1F0BD0500F6E71A00AB
:10089000F2E7C04610B5830725D00378002B24D09B
:1008A0000300032102E01A78002A1AD001330B4218
:1008B000F9D119680E4A0F4C8A188A43224206D190
:1008C000043319680A4A8A188A432242F8D01A0067
:1008D0001B78002B03D0013211780029FBD1101AAC
:1008E00010BD181AFCE70300E3E70020F8E7C04654
:1008F000FFFEFEFE80808080F0B54646D6464F461D
:10090000C0B58AB090466A461D4B0D00060013CB59
:1009100013C213CB13C213CB13C21B78EA46137056
:100920004346023B2F000024222B01D924E04C46F1
:10093000631C300041469946FFF748FF53465B5C15
:1009400030003B704146FFF7BBFE0137061EEED17B
:100950004B46E8540023002C07D0EA5C295DE9549B
:100960002A550133013CA342F7DB28000AB01CBC26
:1009700090469946A246F0BD2C700020F6E7C0468E
:10098000680A000000000000C02709009005100060
:10099000C05C1500F0B31A00200B2000009F24005B
:1009A000E0322900C0C62D0050973100E0673500C5
:1009B0007038390000093D00401640008023430094
:1009C000C0304600E9020000D1020000BD02000074
:1009D0000000000000000000000000000000000017
:1009E00000000000676F74206D6573736173676545
:1009F000203100006D657373616765207472616EEC
:100A0000736D697474656400001BB7005374617280
:100A10007465642075700A0D0000000052656365FE
:100A200069766564204D6573736167652049443A52
:100A3000203078000D0A000043414E204572726F4D
:100A4000723A2030620000006D6573736167652043
:100A500073656E740000000077726F6E67206B65BF
:100A60007970726573730000303132333435363744
:100A700038396162636465666768696A6B6C6D6E5C
:100A80006F707172737475767778797A00000000F0
:080A900030F6FF7F01000000B9
:040A9800001BB70088
:04000003000000C138
:00000001FF
