:1000000000200010C1000000E1000000E30000003B
:1000100000000000000000000000000000000000E0
:10002000000000000000000000000000E5000000EB
:100030000000000000000000E70000008D0200004A
:10004000EB000000EB000000EB000000EB00000004
:10005000EB000000EB000000EB000000EB000000F4
:10006000EB000000EB000000EB000000EB000000E4
:10007000EB000000EB000000EB000000EB000000D4
:10008000EB000000EB000000EB000000EB000000C4
:10009000EB000000EB00000000000000000000008A
:1000A000EB000000EB000000EB000000000000008F
:1000B000EB000000EB000000EB000000EB00000094
:1000C0000549064A0020521A02DD043A8850FCDC39
:1000D00000F03EF900F0FEF80401001010010010DD
:1000E000FEE7FEE7FEE7FEE7FEE7FEE710B500F0FD
:1000F00067F8014B186010BD0001001080224020FD
:1001000002498B5803438B507047C046008004401F
:10011000090410B54018002B07D10121802491401B
:10012000240203598B43035110BD012380219340C6
:100130000902445823434350F6E7C046032100B563
:100140001B4A83B0136F0B40022B1CD0032B0CD027
:10015000012B02D0174803B000BD136C1940F9D031
:10016000012923D1144B1868F5E79168126C1340EC
:1001700016D0012B1AD11F200F4B08401B680130ED
:1001800001935843E7E71F21526AD30511401B0F23
:100190000A4A9B0001314900985800F0FBF8DAE761
:1001A0001F2304480B4001335843D4E70020D2E713
:1001B00000800440001BB700EC040000AC04000009
:1001C00010B5FFF7BBFF024B996F00F0E3F810BDCD
:1001D0000080044080218022074B10B55C585201FA
:1001E00022435A5098227F39995007238360043B59
:1001F000C3600D33836210BD0080044030B5002A17
:100200000FDD43699B060CD50023202502E04469DD
:10021000254204D0CC5C013304609A42F7D1180027
:1002200030BD0023FBE7C04630B5002A0FDD43692F
:10023000DB070CD50023012502E04469254204D0E8
:100240000468CC5401339A42F7D1180030BD002322
:10025000FBE7C04670B50E000400FFF76FFF3101E9
:10026000050000F097F8FF231E00010006408020E3
:10027000E2680243E2600A0A134026606360E368B2
:100280008343E360280000F085F870BD024A1368DC
:10029000013313607047C046040100100122A421FD
:1002A0000A4B10B50A4C5A5004315A502000FFF73F
:1002B00091FFE12120000902FFF7CCFF0323E36057
:1002C0007E33A360013B236310BDC0460040044061
:1002D0000080004010B5FFF709FFFA21174B890095
:1002E000186800F057F8C021154A013850601548C9
:1002F0000906036A1B021B0A0B4303620023936077
:1003000007331360FFF7CAFFA020C005FFF7F6FE12
:10031000A020012308220221C005FFF7F9FE0A4CA4
:10032000082221000948FFF77FFFC0B20028F7D05C
:10033000082221000548FFF761FFF1E700010010E6
:1003400010E000E000ED00E0080100100080004037
:10035000012200210D4B10B51A675A6759675A6779
:1003600001315A6F1142FCD08E22802092009C589D
:10037000C0002043985080209C5840002043985053
:100380009967B93A0249FF3A995010BD008004407C
:100390005F000100002243088B4274D303098B42A3
:1003A0005FD3030A8B4244D3030B8B4228D3030C45
:1003B0008B420DD3FF22090212BA030C8B4202D3E7
:1003C0001212090265D0030B8B4219D300E0090A0F
:1003D000C30B8B4201D3CB03C01A5241830B8B4218
:1003E00001D38B03C01A5241430B8B4201D34B0301
:1003F000C01A5241030B8B4201D30B03C01A524166
:10040000C30A8B4201D3CB02C01A5241830A8B42EA
:1004100001D38B02C01A5241430A8B4201D34B02D3
:10042000C01A5241030A8B4201D30B02C01A524137
:10043000CDD2C3098B4201D3CB01C01A52418309EB
:100440008B4201D38B01C01A524143098B4201D325
:100450004B01C01A524103098B4201D30B01C01A50
:100460005241C3088B4201D3CB00C01A52418308CA
:100470008B4201D38B00C01A524143088B4201D3F7
:100480004B00C01A5241411A00D201465241104657
:100490007047FFE701B5002000F006F802BDC04636
:1004A0000029F7D076E770477047C046000000008B
:1004B000C027090090051000C05C1500F0B31A00B9
:1004C000200B2000009F2400E0322900C0C62D0030
:1004D00050973100E06735007038390000093D0061
:1004E0004016400080234300C0304600000000005A
:0804F000D0FBFF7F01000000BA
:0404F800001BB7002E
:04000003000000C138
:00000001FF
