:1000000000200010C1000000E1000000E30000003B
:1000100000000000000000000000000000000000E0
:10002000000000000000000000000000E5000000EB
:100030000000000000000000E700000035020000A2
:10004000EB000000EB000000EB000000EB00000004
:10005000EB000000EB000000EB000000EB000000F4
:10006000EB000000EB000000EB000000EB000000E4
:10007000EB000000EB000000EB000000EB000000D4
:10008000EB000000EB000000EB000000EB000000C4
:10009000EB000000EB00000000000000000000008A
:1000A000EB000000EB000000EB000000000000008F
:1000B000EB000000EB000000EB000000EB00000094
:1000C0000549064A0020521A02DD043A8850FCDC39
:1000D00000F03EFA00F008FA0401001010010010D0
:1000E000FEE7FEE7FEE7FEE7FEE7FEE710B500F0FD
:1000F00067F8014B186010BD0001001080224020FD
:1001000002498B5803438B507047C046008004401F
:10011000090410B54018002B07D10121802491401B
:10012000240203598B43035110BD012380219340C6
:100130000902445823434350F6E7C046032100B563
:100140001B4A83B0136F0B40022B1CD0032B0CD027
:10015000012B02D0174803B000BD136C1940F9D031
:10016000012923D1144B1868F5E79168126C1340EC
:1001700016D0012B1AD11F200F4B08401B680130ED
:1001800001935843E7E71F21526AD30511401B0F23
:100190000A4A9B0001314900985800F0FBF9DAE760
:1001A0001F2304480B4001335843D4E70020D2E713
:1001B00000800440001BB700EC060000AC06000005
:1001C00010B5FFF7BBFF024B996F00F0E3F910BDCC
:1001D0000080044080218022074B10B55C585201FA
:1001E00022435A5098227F39995007238360043B59
:1001F000C3600D33836210BD0080044070B50E00F3
:100200000400FFF79BFF3101050000F0C3F9FF2355
:100210001E00010006408020E2680243E2600A0AF4
:10022000134026606360E3688343E360280000F0C6
:10023000B1F970BD024A1368013313607047C046BC
:10024000040100100122A4210A4B10B50A4C5A5097
:1002500004315A502000FFF7BDFFE12120000902C0
:10026000FFF7CCFF0323E3607E33A360013B2363EE
:1002700010BDC0460040044000800040F8B5A024F6
:1002800080270025E4051E4E2000FFF737FFFF0002
:100290002000012308220221FFF73AFFF551200038
:1002A000012307220221FFF733FF80239B00F55033
:1002B0002000012308220121FFF72AFF114B200013
:1002C000DD51062201230221FFF722FF80235B007C
:1002D000F5500D4E2000FF3B03220321FFF718FFCE
:1002E00035622000012301220321FFF711FFB560D1
:1002F0000123002203212000FFF70AFF7560F8BDEB
:10030000000002500000015000000350012270B5AF
:10031000802403091A402349920164000A510822EB
:10032000022599001140204A116259082940DB102A
:100330009160536080231D4ADB00D4501C4B196828
:100340001A689142FCD0802200241849D2008C50B7
:1003500019681A689142FCD00122110080250140E1
:10036000104C89016D006151082184000C400E4938
:1003700002260C624408C0101040802234408C6079
:1003800048600A49D2008D5019681A689142FCD021
:10039000802200200549D200885019681A689142CD
:1003A000FCD070BD0000025000000350000001505E
:1003B0000401001080220023F0B5144C144DD2002B
:1003C000A350AB500133190080260140890176000B
:1003D000A1510821022784000C400E490C624408F8
:1003E000C01018403C400C4B8C604860AE501968FF
:1003F0001A689142FCD0802200200549D200885022
:1004000019681A689142FCD0F0BDC0460000025045
:1004100000000150000003500401001010B52F4CE3
:10042000226823689B1A272BFBD9802300212C4AA2
:100430009B00D1500320FFF7BDFF226823689B1A61
:10044000042BFBD9802300222549DB00CA50254913
:100450002020CA50FFF75AFF226823689B1A042BFA
:10046000FBD9802300221E49DB00CA501D492020F1
:10047000CA50FFF74BFF226823689B1A042BFBD955
:10048000802300221649DB00CA5016490C20CA50AE
:10049000FFF73CFF226823689A42FCD080230022A9
:1004A0000F49DB00CA500F490120CA50FFF72EFF49
:1004B000226823689B1A012BFBD98023002208495C
:1004C000DB00CA5007490620CA50FFF71FFF226809
:1004D00023689B1A012BFBD910BDC04604010010F4
:1004E000000002500000015010B5FFF7FFFDFA2197
:1004F000124B8900186800F04DF8C021104A0138ED
:10050000506010480906036A00241B021B0A0B43B3
:100510000362072394601360FFF794FEFFF7AEFEBB
:10052000FFF77CFF80238021074ADB004900D15080
:10053000064A4120D450FFF7E9FEFEE70001001013
:1005400010E000E000ED00E000000250000001506B
:10055000012200210D4B10B51A675A6759675A6777
:1005600001315A6F1142FCD08E22802092009C589B
:10057000C0002043985080209C5840002043985051
:100580009967B93A0249FF3A995010BD008004407A
:100590005F000100002243088B4274D303098B42A1
:1005A0005FD3030A8B4244D3030B8B4228D3030C43
:1005B0008B420DD3FF22090212BA030C8B4202D3E5
:1005C0001212090265D0030B8B4219D300E0090A0D
:1005D000C30B8B4201D3CB03C01A5241830B8B4216
:1005E00001D38B03C01A5241430B8B4201D34B03FF
:1005F000C01A5241030B8B4201D30B03C01A524164
:10060000C30A8B4201D3CB02C01A5241830A8B42E8
:1006100001D38B02C01A5241430A8B4201D34B02D1
:10062000C01A5241030A8B4201D30B02C01A524135
:10063000CDD2C3098B4201D3CB01C01A52418309E9
:100640008B4201D38B01C01A524143098B4201D323
:100650004B01C01A524103098B4201D30B01C01A4E
:100660005241C3088B4201D3CB00C01A52418308C8
:100670008B4201D38B00C01A524143088B4201D3F5
:100680004B00C01A5241411A00D201465241104655
:100690007047FFE701B5002000F006F802BDC04634
:1006A0000029F7D076E770477047C0460000000089
:1006B000C027090090051000C05C1500F0B31A00B7
:1006C000200B2000009F2400E0322900C0C62D002E
:1006D00050973100E06735007038390000093D005F
:1006E0004016400080234300C03046000000000058
:0806F000D0F9FF7F01000000BA
:0406F800001BB7002C
:04000003000000C138
:00000001FF
