:1000000000200010C1000000E1000000E30000003B
:1000100000000000000000000000000000000000E0
:10002000000000000000000000000000E5000000EB
:100030000000000000000000E7000000D501000003
:10004000EB000000EB000000EB000000EB00000004
:10005000EB000000EB000000EB000000EB000000F4
:10006000EB000000EB000000EB000000EB000000E4
:10007000EB000000EB000000EB000000EB000000D4
:10008000EB000000EB000000EB000000EB000000C4
:10009000EB000000EB00000000000000000000008A
:1000A000EB000000EB000000EB000000000000008F
:1000B000EB000000EB000000EB000000EB00000094
:1000C0000549064A0020521A02DD043A8850FCDC39
:1000D00000F0ECF800F086F80401001008010010B0
:1000E000FEE7FEE7FEE7FEE7FEE7FEE710B500F0FD
:1000F00067F8014B186010BD0001001080224020FD
:1001000002498B5803438B507047C046008004401F
:10011000090410B54018002B07D10121802491401B
:10012000240203598B43035110BD012380219340C6
:100130000902445823434350F6E7C046032100B563
:100140001B4A83B0136F0B40022B1CD0032B0CD027
:10015000012B02D0174803B000BD136C1940F9D031
:10016000012923D1144B1868F5E79168126C1340EC
:1001700016D0012B1AD11F200F4B08401B680130ED
:1001800001935843E7E71F21526AD30511401B0F23
:100190000A4A9B0001314900985800F0CDF8DAE78F
:1001A0001F2304480B4001335843D4E70020D2E713
:1001B00000800440001BB7009004000050040000C1
:1001C00010B5FFF7BBFF024B996F00F0B5F810BDFB
:1001D00000800440024A1368013313607047C04630
:1001E00004010010F0B5C64600B5FFF77FFFFA2105
:1001F000284B8900186800F09FF8C021264A013872
:10020000506026480906036AA0271B021B0A0B43FD
:1002100000240362072380258026FF0594603800B0
:1002200013600221063B0822FFF772FF1C4BED0012
:1002300098465C5138000123062200217600FFF722
:1002400067FFBC513800012307220021FFF760FF40
:1002500080239B00FC500221380001230922FFF774
:1002600057FF802342461B01D450380044460027E4
:10027000FFF744FF0B4A0C496651106813681B1ABC
:100280008B42FBD96751106813681B1A8B42FBD94C
:10029000F2E7C0460001001010E000E000ED00E0D1
:1002A0000000025004010010E70300008E2120200E
:1002B0001F4B89005A5810B582435A5000221A62C7
:1002C000C823C046013B002BFBD10121184A13640F
:1002D000516453645164536C1942FCD023238E2122
:1002E0008020936089005358834353500121104A62
:1002F000D3681942FCD000231167516753675167D7
:1003000001210B4A536F1942FCD08E2380209B00A1
:10031000D458C0002043D0508020D45840002043FF
:10032000D0509167B93B0349FF3BD15010BDC04647
:10033000008004405F000100002243088B4274D318
:1003400003098B425FD3030A8B4244D3030B8B42D6
:1003500028D3030C8B420DD3FF22090212BA030CDF
:100360008B4202D31212090265D0030B8B4219D3C0
:1003700000E0090AC30B8B4201D3CB03C01A5241E0
:10038000830B8B4201D38B03C01A5241430B8B4228
:1003900001D34B03C01A5241030B8B4201D30B0311
:1003A000C01A5241C30A8B4201D3CB02C01A524138
:1003B000830A8B4201D38B02C01A5241430A8B42FB
:1003C00001D34B02C01A5241030A8B4201D30B02E4
:1003D000C01A5241CDD2C3098B4201D3CB01C01AFE
:1003E000524183098B4201D38B01C01A5241430908
:1003F0008B4201D34B01C01A524103098B4201D3F6
:100400000B01C01A5241C3088B4201D3CB00C01A62
:10041000524183088B4201D38B00C01A52414308DA
:100420008B4201D34B00C01A5241411A00D20146FF
:10043000524110467047FFE701B5002000F006F872
:1004400002BDC0460029F7D076E770477047C04626
:1004500000000000C027090090051000C05C1500D6
:10046000F0B31A00200B2000009F2400E032290086
:10047000C0C62D0050973100E06735007038390054
:1004800000093D004016400080234300C030460074
:04049000001BB70096
:080494002CFCFF7F01000000B9
:04049C00001BB7008A
:04000003000000C138
:00000001FF
